{"abi":[{"type":"constructor","inputs":[],"stateMutability":"nonpayable"},{"type":"function","name":"access","inputs":[{"name":"_userAddress","type":"address","internalType":"address"}],"outputs":[{"name":"","type":"bool","internalType":"bool"}],"stateMutability":"view"},{"type":"function","name":"addOtherOwners","inputs":[{"name":"_otherOwner","type":"address","internalType":"address"}],"outputs":[],"stateMutability":"nonpayable"},{"type":"function","name":"approve","inputs":[{"name":"_userAddress","type":"address","internalType":"address"}],"outputs":[],"stateMutability":"nonpayable"},{"type":"function","name":"cancel","inputs":[{"name":"_userAddress","type":"address","internalType":"address"}],"outputs":[],"stateMutability":"nonpayable"},{"type":"function","name":"isOwner","inputs":[{"name":"owners","type":"address","internalType":"address"}],"outputs":[{"name":"isOwner","type":"bool","internalType":"bool"}],"stateMutability":"view"},{"type":"function","name":"register","inputs":[{"name":"_userName","type":"string","internalType":"string"},{"name":"_userPassKey","type":"string","internalType":"string"},{"name":"_userEmail","type":"string","internalType":"string"}],"outputs":[{"name":"","type":"bytes32","internalType":"bytes32"}],"stateMutability":"nonpayable"},{"type":"function","name":"userdetails","inputs":[{"name":"user","type":"address","internalType":"address"}],"outputs":[{"name":"userName","type":"string","internalType":"string"},{"name":"userPassKey","type":"string","internalType":"string"},{"name":"userEmail","type":"string","internalType":"string"},{"name":"accessCode","type":"bytes32","internalType":"bytes32"},{"name":"isApprove","type":"bool","internalType":"bool"}],"stateMutability":"view"},{"type":"event","name":"Approve","inputs":[{"name":"user","type":"address","indexed":true,"internalType":"address"},{"name":"name","type":"string","indexed":false,"internalType":"string"},{"name":"email","type":"string","indexed":false,"internalType":"string"},{"name":"code","type":"bytes32","indexed":false,"internalType":"bytes32"},{"name":"userPassKey","type":"string","indexed":false,"internalType":"string"},{"name":"isApprove","type":"bool","indexed":false,"internalType":"bool"}],"anonymous":false},{"type":"event","name":"Cancel","inputs":[{"name":"user","type":"address","indexed":true,"internalType":"address"},{"name":"name","type":"string","indexed":false,"internalType":"string"},{"name":"email","type":"string","indexed":false,"internalType":"string"},{"name":"code","type":"bytes32","indexed":false,"internalType":"bytes32"},{"name":"userPassKey","type":"string","indexed":false,"internalType":"string"},{"name":"isCancel","type":"bool","indexed":false,"internalType":"bool"}],"anonymous":false},{"type":"event","name":"Register","inputs":[{"name":"user","type":"address","indexed":true,"internalType":"address"},{"name":"name","type":"string","indexed":false,"internalType":"string"},{"name":"email","type":"string","indexed":false,"internalType":"string"},{"name":"code","type":"bytes32","indexed":false,"internalType":"bytes32"},{"name":"userPassKey","type":"string","indexed":false,"internalType":"string"}],"anonymous":false}],"bytecode":{"object":"0x6080604052348015600f57600080fd5b50336000908152600160208190526040909120805460ff19169091179055610cac8061003c6000396000f3fe608060405234801561001057600080fd5b506004361061007d5760003560e01c80634cd08d031161005b5780634cd08d03146100e25780636fae3d76146101035780637d02edad14610116578063daea85c51461013a57600080fd5b80632f54bf6e1461008257806337696260146100ba5780634c33fe94146100cf575b600080fd5b6100a561009036600461078b565b60016020526000908152604090205460ff1681565b60405190151581526020015b60405180910390f35b6100cd6100c836600461078b565b61014d565b005b6100cd6100dd36600461078b565b610205565b6100f56100f0366004610860565b610302565b6040519081526020016100b1565b6100a561011136600461078b565b610463565b61012961012436600461078b565b6104c5565b6040516100b195949392919061093a565b6100cd61014836600461078b565b61068f565b3360009081526001602052604090205460ff166101855760405162461bcd60e51b815260040161017c9061098d565b60405180910390fd5b6001600160a01b03811660009081526001602052604090205460ff16156101de5760405162461bcd60e51b815260206004820152600d60248201526c185b1c9958591e481859191959609a1b604482015260640161017c565b6001600160a01b03166000908152600160208190526040909120805460ff19169091179055565b3360009081526001602052604090205460ff166102345760405162461bcd60e51b815260040161017c9061098d565b6001600160a01b03811660009081526020819052604090206004015460ff1661028e5760405162461bcd60e51b815260206004820152600c60248201526b1b9bdd08185c1c1c9bdd995960a21b604482015260640161017c565b6001600160a01b03811660008181526020819052604080822060048101805460ff19169055600381015491519093927fd0ba8a12f0d49dda32cf142e4f0f999d50d57162df439ad51abab2c2535ab179926102f6928692600284019291600185019190610a71565b60405180910390a25050565b6040516333fb01dd60e11b81526000908190735aa517fe43bd7bf59015112068369d9c1434a2ec906367f603ba9061034290339089908990600401610ac5565b602060405180830381865af415801561035f573d6000803e3d6000fd5b505050506040513d601f19601f820116820180604052508101906103839190610b05565b6040805160a08101825287815260208082018890528183018790526060820184905260006080830181905233815290819052919091208151929350909181906103cc9082610b6d565b50602082015160018201906103e19082610b6d565b50604082015160028201906103f69082610b6d565b50606082015160038201556080909101516004909101805460ff191691151591909117905560405133907f82d7db7167a9bd3187a747c2ac2c1704d484ebfd746bdbc14dce39d45e7c7cfc90610453908890879086908a90610c2c565b60405180910390a2949350505050565b6001600160a01b03811660009081526020819052604081206004015460ff166104bd5760405162461bcd60e51b815260206004820152600c60248201526b1b9bdd08185c1c1c9bdd995960a21b604482015260640161017c565b506001919050565b6000602081905290815260409020805481906104e0906109b4565b80601f016020809104026020016040519081016040528092919081815260200182805461050c906109b4565b80156105595780601f1061052e57610100808354040283529160200191610559565b820191906000526020600020905b81548152906001019060200180831161053c57829003601f168201915b50505050509080600101805461056e906109b4565b80601f016020809104026020016040519081016040528092919081815260200182805461059a906109b4565b80156105e75780601f106105bc576101008083540402835291602001916105e7565b820191906000526020600020905b8154815290600101906020018083116105ca57829003601f168201915b5050505050908060020180546105fc906109b4565b80601f0160208091040260200160405190810160405280929190818152602001828054610628906109b4565b80156106755780601f1061064a57610100808354040283529160200191610675565b820191906000526020600020905b81548152906001019060200180831161065857829003601f168201915b50505050600383015460049093015491929160ff16905085565b3360009081526001602052604090205460ff166106be5760405162461bcd60e51b815260040161017c9061098d565b6001600160a01b03811660009081526020819052604090206004015460ff161561071d5760405162461bcd60e51b815260206004820152601060248201526f185b1c9958591e48185c1c1c9bdd995960821b604482015260640161017c565b6001600160a01b0381166000818152602081905260409081902060048101805460ff19166001908117909155600382015492519193927fcc5e0f51662fee854bc1a1b5bb681b67638c40adccb6586e32b582ecf8b48f41926102f69286926002840192909180850191610a71565b60006020828403121561079d57600080fd5b81356001600160a01b03811681146107b457600080fd5b9392505050565b634e487b7160e01b600052604160045260246000fd5b600082601f8301126107e257600080fd5b813567ffffffffffffffff8111156107fc576107fc6107bb565b604051601f8201601f19908116603f0116810167ffffffffffffffff8111828210171561082b5761082b6107bb565b60405281815283820160200185101561084357600080fd5b816020850160208301376000918101602001919091529392505050565b60008060006060848603121561087557600080fd5b833567ffffffffffffffff81111561088c57600080fd5b610898868287016107d1565b935050602084013567ffffffffffffffff8111156108b557600080fd5b6108c1868287016107d1565b925050604084013567ffffffffffffffff8111156108de57600080fd5b6108ea868287016107d1565b9150509250925092565b6000815180845260005b8181101561091a576020818501810151868301820152016108fe565b506000602082860101526020601f19601f83011685010191505092915050565b60a08152600061094d60a08301886108f4565b828103602084015261095f81886108f4565b9050828103604084015261097381876108f4565b606084019590955250509015156080909101529392505050565b6020808252600d908201526c6e6f7420617574686f72697a6560981b604082015260600190565b600181811c908216806109c857607f821691505b6020821081036109e857634e487b7160e01b600052602260045260246000fd5b50919050565b600081546109fb816109b4565b808552600182168015610a155760018114610a3157610a68565b60ff1983166020870152602082151560051b8701019350610a68565b84600052602060002060005b83811015610a5f5781546020828a010152600182019150602081019050610a3d565b87016020019450505b50505092915050565b60a081526000610a8460a08301886109ee565b8281036020840152610a9681886109ee565b90508560408401528281036060840152610ab081866109ee565b91505082151560808301529695505050505050565b6001600160a01b0384168152606060208201819052600090610ae9908301856108f4565b8281036040840152610afb81856108f4565b9695505050505050565b600060208284031215610b1757600080fd5b5051919050565b601f821115610b6857806000526020600020601f840160051c81016020851015610b455750805b601f840160051c820191505b81811015610b655760008155600101610b51565b50505b505050565b815167ffffffffffffffff811115610b8757610b876107bb565b610b9b81610b9584546109b4565b84610b1e565b6020601f821160018114610bcf5760008315610bb75750848201515b600019600385901b1c1916600184901b178455610b65565b600084815260208120601f198516915b82811015610bff5787850151825560209485019460019092019101610bdf565b5084821015610c1d5786840151600019600387901b60f8161c191681555b50505050600190811b01905550565b608081526000610c3f60808301876108f4565b8281036020840152610c5181876108f4565b90508460408401528281036060840152610c6b81856108f4565b97965050505050505056fea26469706673582212200b3076cff4c04a2977f79cb04a7522957331874b810fd07295b56c1630e52c6e64736f6c634300081a0033","linkReferences":{}},"methodIdentifiers":{"access(address)":"6fae3d76","addOtherOwners(address)":"37696260","approve(address)":"daea85c5","cancel(address)":"4c33fe94","isOwner(address)":"2f54bf6e","register(string,string,string)":"4cd08d03","userdetails(address)":"7d02edad"},"id":28}